:03000000020B38B8
:0C0B3800787FE4F6D8FD758124020B7F65
:100D7500E4FDFCE4FAFBC3EB9FEA9E50070BBB00C6
:0F0D8500010A80F20DBD00010CBC01E7BDF4E4D2
:010D9400223C
:0B009000EF1FAC0670011E4C70F62242
:0D002E00E4F5C7F5C5F5C675C380F5C4221D
:100DB40075C78275C5018FC4EEF5C375C65A75C66D
:0D0DC400A57F0A7E00120090AFC212002E23
:010DD10022FF
:100D950075C78275C5028FC4EEF5C3AF058FC275E1
:0F0DA500C65A75C6A57F0A7E0012009002002E66
:10000E0075C78275C5038FC4EEF5C375C65A75C61E
:0B001E00A57F0A7E0012009002002E59
:100DEB00438E805389F0438901758A6C758CFBC2E5
:060DFB008DD28CD2A9226A
:100DD200538EBF53890FE4F58B758DDCC28FD28E93
:090DE200D2AB43B80843B7082264
:100E260053D1FD75D56675D4FC75AF2043D1082224
:0400030043D10822BB
:0400070053D1F722B8
:0F0E3600759850438E1575D6FF75D7E7D2992260
:100E0100E4F5D875D909F5E9F5F975DD21F5EDF5C3
:040E1100FDD2DE220E
:0F0E45005392FE43910175DE0F75BC8CD2AD2226
:040E540043BC402239
:100BC4005365744265657020310A0053657442654B
:100BD400657020300A0062436F64654576656E7403
:100BE4002068617070656E200A006E416C61726DE0
:100BF40031436E743A20256275206E547267436ED9
:100C0400742025750A006E416C61726D32436E74F6
:100C14003A20256275206E547267436E74202575E0
:100C24000A006942656570436E743A202575200A8E
:010C340000BF
:100A96004100A0004400A7000000004400AB000095
:100AA600000044008000000000C126C1A1C19E4193
:100AB60000990041009A004100840042009E000017
:100AC6004100A3014100B1014200A50000C125413A
:100AD600009B004100850041009C0041008600C14A
:100AE6001DC11FC12441009D004100A40041008793
:100AF6000042008D00004200AF00004200A100004D
:100B0600C120C123C122C11C450088010202070D74
:100B16004A008F03C907B103C90087003442007831
:100B2600000042007A000042007C000042007E0085
:010B360000BE
:100CC9009000A5E0FEA3E0FFC394AAEE940A4004B5
:100CD900D21E800BD3EF94B2EE94095002C21EC308
:100CE900EF9436EE94094003D22122D3EF943EEEDD
:070CF90094085002C2212201
:100D000030210E201E05A212B392A4A21292878057
:100D100005A212B392A37BFF3012067A0B79C4802E
:090D2000047A0B79CF12010922BB
:100C8400E4FFFE120DB49000A3EFF0D394055006D8
:100C9400E0C3940150069000A37401F09000A3E017
:100CA4009000B1F025E0248DF582E43400F583E072
:100CB400FEA3E0FF9000AFEEF0A3EFF09000A1EEF2
:050CC400F0A3EFF02297
:100E1500E4FFFE12000E9000A3E0FDE4FFFE020DCC
:010E25009537
:100D5000E4F5957596FF53B1FD43B20253B1DF43FD
:100D6000B22053B1EF43B2104392405391BF43942A
:050D70008053937F2277
:10088C00120C84120E26120E01120E36120D50127C
:10089C000E45D2AF120E54C296C2B4C2B5C28790E6
:1008AC00009BE0D39401401490009DE0700E9000EA
:1008BC009BE014F090009D7401F0D22390009CE01A
:1008CC00D394014010A3E0700C90009CE014F0A3B2
:1008DC007401F0D223900085E0D394004044900042
:1008EC0087E0703E900085E014F09000A3E0FFD309
:1008FC009401402E9000B1EFF02487F582E434008F
:10090C00F583E0900087F09000A3E025E0248DF5BE
:10091C0082E43400F583E0FFA3E09000AFCFF0A3B6
:10092C00EFF0900086E0D394004042A3E0703E903C
:10093C000086E014F09000A3E0FFD39401402E90C9
:10094C0000B1EFF02487F582E43400F583E09000E9
:10095C0087F09000A3E025E0248DF582E43400F5C7
:10096C0083E0FFA3E09000AFCFF0A3EFF03024289A
:10097C00C2249000A3E0C3940540057401F08006E6
:10098C009000A3E004F0120E159000A3E0A3F07BFE
:0E099C00FF7A0B79DA120109120CC90208ABBE
:03002B00020C358F
:0B0C3500C0E0C083C082C0D075D008B2
:100C4000E453BCDFADBD9000A5F0A3EDF09000A58E
:100C5000E0FCA3E0C4F8540FC868FEECC454F048AC
:100C60009000A5F0A3CEF0E5BEC4540FFF7E009027
:0B0C700000A5E0F0A3E04FF043BC4003
:090C7B00D0D0D082D083D0E03249
:03000B0002003EB2
:0B003E00C0E0C083C082C0D075D008B5
:10004900E4FEFC7F1E0C7D3A758A6C758CFB900072
:1000590079E004F07006900078E004F0900078E010
:10006900FAA3E0FBB50F06EAB50E02C226EBB50D01
:0E0079000DEAB50C09900078E4F0A3F0D22651
:09008700D0D0D082D083D0E03249
:03003B00020403B9
:10040300C0E0C0F0C083C082C0D075D000C000C0BF
:1004130001C002C003C004C005C006C00720DF033B
:10042300020538C2DF2025030205389000A0E0044E
:10043300F09000ACE0FF9000A0E0C39FC394025093
:1004430003020538900099E0FFD394115044EFC3A1
:100453009407403E90009EE0FEA3E0FF941EEE94BE
:1004630000502F90009BE0C394025003E004F090EF
:100473000085E0C394025003E004F07BFF7A0B791C
:10048300EE900099E0900053F0A3EEF0A3EFF0128A
:10049300010990009AE0FFD3941B5044EFC3940FDB
:1004A300403E90009EE0FEA3E0FF9428EE940050AF
:1004B3002F90009CE0C394025003E004F090008668
:1004C300E0C394025003E004F07BFF7A0C790A90B6
:1004D300009AE0900053F0A3EEF0A3EFF0120109AD
:1004E300900084E0FFD394255016EFC39416401078
:1004F30090009FE0943290009EE094005002D2243A
:10050300C2259000A0E4F090009EF0A3F090009923
:10051300F0A3F0900084F09000A71209C700000038
:10052300009000AB1209C700000000900080120980
:10053300C70000000020DB03020677C2DB90009FA8
:10054300E004F0700690009EE004F09000ABE0FC45
:10055300A3E0FDA3E0FEA3E0FF9000A71209BB9078
:1005630000AEE5EDF09000ADE5FDF09000A0E09069
:1005730000ACF09000ABE4F09000A7E0F8A3E0F942
:10058300A3E0FAA3E0FBA3E0FCA3E0FDA3E0FEA34A
:10059300E0C39BFFEE9AFEED99FDEC98FC90008082
:1005A3001209BB202503020663D390009FE0940445
:1005B30090009EE094005003020663E47F5F7E098F
:1005C300FDFC900080E0F8A3E0F9A3E0FAA3E0FBD0
:1005D300D31209AA501CE47FF17E08FDFC90008031
:1005E300E0F8A3A3A3E0C31209AA4006900099E090
:1005F30004F0E47F2D7E06FDFC900080E0F8A3E08C
:10060300F9A3E0FAA3E0FBD31209AA501CE47FBECE
:100613007E05FDFC900080E0F8A3A3A3E0C31209CC
:10062300AA400690009AE004F0E47F147E08FDFCE3
:10063300900080E0F8A3E0F9A3E0FAA3E0FBD31273
:1006430009AA501CE47FB07E07FDFC900080E0F80F
:10065300A3A3A3E0C31209AA4006900084E004F018
:10066300202511D2259000A0E4F0900099F0A3F08A
:10067300900084F0D007D006D005D004D003D00278
:0F068300D001D000D0D0D082D083D0F0D0E032E0
:03009B00020692C8
:0D069200C0E0C0F0C083C082C0D075D008A9
:10069F0090007BE004F0700690007AE004F0900088
:1006AF007DE004F0700690007CE004F090007FE0A5
:1006BF0004F0700690007EE004F030233090009D2F
:1006CF00E0B401297BFF7A0C792690007AE0FFA332
:1006DF00E0900053CFF0A3EFF0120109C223900076
:1006EF007AE4F0A304F0D220D212120D0090007C15
:1006FF00E07004A3E06401700E9000A3E0FFA3E09C
:10070F00B50F04D222C2A590007EE07004A3E0646E
:10071F0001702E9000B1E02487F582E43400F58358
:10072F00E0FF900087E0B50F18D21C9000AFE0FFFC
:10073F00A3E09000A1CFF0A3EFF0301E04C2B4C22B
:10074F00B590007AE07004A3E06450701390009DA0
:10075F00E0D39400403E30203BC212120D00803493
:10076F0090007AE07004A3E064C8702890009DE0C8
:10077F00D394004018302015E014F0E0700AC21D29
:10078F00C21FC220C2128002D212120D0090007A34
:10079F00E4F0A3F090007CE0FEA3E0FF64C84E708D
:1007AF00109000A4E0D394004034302231D2A580C1
:1007BF002DEF64907003EE640170239000A4E0D3DA
:1007CF0094004013302210E014F0E07008C224C2ED
:1007DF0022D2A58002C2A590007CE4F0A3F0900085
:1007EF00A1E0FEA3E0FF90007EE0FCA3E0FDB50FCB
:1007FF0019ECB50E15900087E0D394014074301CAE
:10080F0071301E6ED2B4C2B58068EF2414FFE43E7F
:10081F00FEEDB50F19ECB50E15900087E0D39401DE
:10082F004050301C4D301E4AC2B4D2B580449000A7
:10083F00A2E02415FF9000A1E03400FE90007EE0BE
:10084F006E7003A3E06F702A900087E0D39401408D
:10085F001A301C17E014F0E0B40109E4F0C21C30A8
:10086F001E098003301E04C2B4C2B590007EE4F0AE
:02087F00A3F0E4
:0B088100D0D0D082D083D0F0D0E03285
:100B440002088CE493A3F8E493A34003F68001F233
:100B540008DFF48029E493A3F85407240CC8C333B2
:100B6400C4540F4420C8834004F456800146F6DF81
:100B7400E4800B0102040810204080900A96E47E71
:100B8400019360BCA3FF543F30E509541FFEE49376
:100B9400A360010ECF54C025E060A840B8E493A33D
:100BA400FAE493A3F8E493A3C8C582C8CAC583CA68
:100BB400F0A3C8C582C8CAC583CADFE9DEE780BE20
:010B370000BD
:1009AA00EB9FF5F0EA9E42F0E99D42F0E89C45F0A3
:0109BA00221A
:0C09BB00ECF0A3EDF0A3EEF0A3EFF022AF
:1009C700A8828583F0D083D0821209DE1209DE1255
:1009D70009DE1209DEE473E493A3C583C5F0C5837A
:1009E700C8C582C8F0A3C583C5F0C583C8C582C87A
:0109F70022DD
:10009E00E51A2453F582E43400F583E0051A229024
:1000AE000050301A03900053E475F001120A50020A
:1000BE0009F82013E97F2ED2138018EF540F2490E5
:1000CE00D43440D4FF30170BEF24BFB41A005003C2
:1000DE002461FFE51B6002151B051EE51E7002055F
:1000EE001D301A0E900050E475F001120A50EF0206
:1000FE000A3E020D297403D21A8003E4C21AF51ABD
:10010E00900050120A67E4F51BF51DF51EE51B6005
:10011E00077F201200E180F5751CFFC214C213C2C6
:10012E0015C216C218C219C21B1200ADFF700D30D7
:10013E001A057F001200F2AF1EAE1D22B4255FC25B
:10014E00D5C2171200ADFF24D0B40A00501A75F0B4
:10015E000A781B30D50508B6FF0106C6A426F62080
:10016E00D5047002D21680D924CFB41A00EF5004F1
:10017E00C2E5D2170202F3D21480C6D21380C0D2C7
:10018E001580BCD2D580BAD21880B47F201200E17F
:10019E002015077401B51B0040F112009EFF1200DE
:1001AE00E102011BD21BD219809512009EFB120098
:1001BE009EFA12009EF94A4B700679C47A037BFFB1
:1001CE0020152EE51B602A7E008E82758300120A92
:1001DE001160060EEE651C70F0C2D5EBC0E0EAC0F1
:1001EE00E0E9C0E0EE12033AD0E0F9D0E0FAD0E058
:1001FE00FB1209F8FF60AAEBC0E0EAC0E0E9C0E03C
:10020E001200E1D0E02401F9D0E03400FAD0E0FB96
:10021E00E51C0460DCD51CD980877BFF7A03793618
:10022E00D215809C791080027908C219C21B8008F1
:10023E00D2D5790A8004790AC2D5E51C047002F57C
:10024E001CE4FAFDFEFF12009EFC7B082014131224
:10025E00009EFD7B1030130A12009EFE12009EFFC0
:10026E007B20EC3382D592D55013C3E43013069F16
:10027E00FFE49EFEE42014039DFDE49CFCE4CBF819
:10028E00C214EC700CCFCECDCCE824F8F870F3800D
:10029E0017C3EF33FFEE33FEED33FDEC33FCEB33E0
:1002AE00FB994002FB0FD8E9EB301405F8D0E0C4FF
:1002BE0048B214C0E00AEC4D4E4F78207B0070C25D
:1002CE00EAB51C0040BCC0E012033CD0F0D0E020E8
:1002DE001404C4C0E0C4B214C0F01200CAD0F0D5E9
:1002EE00F0EB02011B120A7001B853023258018959
:1002FE004C01854202364F023E44023E49019E4366
:08030E000244550228460228B2
:100316004502284703E450018D2D01912E01B42B8F
:1003260001952301B22003CD2A014D48000001ACFE
:100336003F3F3F00790AA2D5201614301809B9109C
:10034600020404B9080104A2D520190250010420B0
:1003560015689215B51B005034C0E07F2030161981
:100366007F30A21572197218500F120393C215C26C
:1003760019C218C21B7F30800F301803E9C0E01283
:1003860000E1301803D0E0F9D0E0B51BCC301817E7
:100396007F30B9100C1200E17F583017077F788044
:1003A60003B908031200E13015057F2D0200E17F35
:1003B60020201BF87F2B2019F322921580CF286E60
:1003C600756C6C2900D21412009E3014F8C2147891
:1003D6001B30D50108F602014D2D50434958120035
:1003E6009E2403B405004001E49003DF931200D27B
:0D03F600743A1200D2D216751B04020232B6
:1009F800BB010689828A83E0225002E722BBFE02FD
:090A0800E32289828A83E493222F
:100A1100BB010CE58229F582E5833AF583E022509A
:100A210006E92582F8E622BBFE06E92582F8E222E4
:0D0A3100E58229F582E5833AF583E49322FE
:100A3E00BB010689828A83F0225002F722BBFE0197
:020A4E00F32291
:100A5000F8E0FBA3A3E0F925F0F0E582158270022F
:070A60001583E0FA38F022D3
:090A6700EBF0A3EAF0A3E9F02290
:100A7000D083D082F8E4937012740193700DA3A315
:100A800093F8740193F5828883E473740293686029
:060A9000EFA3A3A380DF29
:100D2900EFB40A07740D120D34740A309811A8999A
:100D3900B8130CC2983098FDA899C298B811F6302A
:070D490099FDC299F5992202
:00000001FF
