:03000000020D3BB3
:0C0D3B00787FE4F6D8FD758125020D825A
:100FAC00E4FDFCE4FAFBC3EB9FEA9E50070BBB008D
:0F0FBC00010A80F20DBD00010CBC01E7BDF4E499
:010FCB002203
:0B10A600EF1FAC0670011E4C70F6221C
:0D108C00E4F5C7F5C5F5C675C380F5C422AF
:100FEB0075C78275C5018FC4EEF5C375C65A75C634
:0D0FFB00A57F0A7E001210A6AFC212108C56
:0110080022C5
:100FCC0075C78275C5028FC4EEF5C3AF058FC275A8
:0F0FDC00C65A75C6A57F0A7E001210A602108C99
:10000E0075C78275C5038FC4EEF5C375C65A75C61E
:0B001E00A57F0A7E001210A602108CC5
:10102200438E805389F0438901758A6C758CFBC2AB
:061032008DD28CD2A92230
:10100900538EBF53890FE4F58B758DDCC28FD28E59
:09101900D2AB43B80843B708222A
:10105D0053D1FD75D56675D4FC75AF2043D10822EB
:04002E0043D1082290
:0400360053D1F72289
:0F107D00759850438E1575D6FF75D7E7D2992217
:10103800E4F5D875D909F5E9F5F975DD21F5EDF58A
:04104800FDD2DE22D5
:0D1099005392FE43910175DE0F75BC8C2251
:0410BA0043BC4022D1
:100E6800E4FFFEFDFC43BC400000E5BC30E5FB535D
:100E7800BCDFAFBD9000ABE4F0A3EFF09000ABE0B7
:100E8800FEA3E0C4F8540FC868FFEEC454F04890BD
:100E980000ABF0A3EFF0E5BEC4540FFF9000ABE049
:050EA800F0A3E04FF093
:010EAD002222
:0910B1005387DF75FF02D2AE2265
:100A0B00636F6D6520736C65657031200A0041441E
:100A1B0043206973202564200A00636F6D65207382
:100A2B006C65657032200A0062436F6465457665BC
:100A3B006E742068617070656E200A006D61696E5E
:100A4B002069732072756E6E696E67200A006E41A5
:100A5B006C61726D31436E743A20256275206E5451
:100A6B007267436E742025750A00696E76616C6936
:100A7B006420206E416C61726D31436E743A202597
:100A8B006275206E547267436E742025750A006E72
:100A9B00416C61726D32436E743A20256275206E23
:100AAB00547267436E742025750A00696E76616C0B
:100ABB00696420206E416C61726D32436E743A2012
:100ACB00256275206E547267436E742025750A007B
:100ADB00696E76616C696420206E436F6465436E4A
:100AEB00743A202562750A006942656570436E741D
:070AFB003A202575200A00D6
:100BEE004100A6004400AD000000004400B100002A
:100BFE00000044008200000000C128C1A2C19E4135
:100C0E00009F004100A000410088004200A40000A7
:100C1E004100A9014100B7014200AB0000C12741CC
:100C2E0000A100410089004100A20041008A00C1DC
:100C3E001DC11FC1264100A3004100AA0041008B27
:100C4E000042009100004200B500004200A70000E3
:100C5E00C121C125C124C11CC120C123C11B420019
:100C6E009D0000420086000042008003E845008C93
:100C7E00010202070D4A009303C907B103C9008799
:100C8E000034420078000042007A000042007C00EE
:060C9E000042007E000090
:10104C00E4FFFE12000E9000A9E0FDE4FFFE020F8B
:01105C00CCC7
:10003E009000ABE0FEA3E0FFC39417EE940D400CCE
:10004E004394035393FCC280C2818030C3EF941F4C
:10005E00EE940C5018EF943EEE9408401043940129
:10006E005393FE5394FD439302C280800FD3EF94BB
:10007E003EEE940850065394FC439303C3EF943E14
:0B008E00EE94085003D22022C2202272
:100CA500202303020D3AC2AFD2967BFF7A0A790B55
:100CB50012010900007F027E00120FAC75AB88E4BB
:100CC500F5AA758702C296900087E004F070069039
:100CD5000086E004F0900086E07004A3E064C8702C
:100CE50021900086F0A3F0120E687BFF7A0A79192D
:100CF5009000ABE0FFA3E0900053CFF0A3EFF0121C
:100D0500010912003E7BFF7A0A792512010930207C
:100D15000DC2A37F0A7E00120FACD2A380077F0508
:100D25007E00120FACC2DBD2AF75AB88E4F5AA75B5
:060D35008702020CA5225A
:100F2A00900081E004F07006900080E004F0C39025
:100F3A000081E094E8900080E094034007E4F0A385
:100F4A00F0120E6812003E30200BC2A37F0A7E0008
:060F5A00120FACD2A3222D
:100911009000A1E0D3940140149000A3E0700E90E8
:1009210000A1E014F09000A37401F0D2259000A280
:10093100E0D394014010A3E0700C9000A2E014F009
:10094100A37401F0D225900089E0D3940040449033
:10095100008BE0703E900089E014F09000A9E0FF68
:10096100D39401402E9000B7EFF0248BF582E4344C
:1009710000F583E090008BF09000A9E025E0249140
:10098100F582E43400F583E0FFA3E09000B5CFF0F9
:10099100A3EFF090008AE0D394004042A3E0703EC0
:1009A10090008AE014F09000A9E0FFD39401402E5A
:1009B1009000B7EFF0248BF582E43400F583E090EA
:1009C100008BF09000A9E025E02491F582E4340049
:1009D100F583E0FFA3E09000B5CFF0A3EFF0302660
:1009E10028C2269000A9E0C3940540057401F08057
:1009F100069000A9E004F012104C9000A9E0A3F0C9
:0A0A01007BFF7A0A79331201092203
:08000300302204A212928722B0
:100EAE00E4FFFE120FEB9000A9EFF0D3940550066D
:100EBE00E0C3940150069000A97401F09000A9E0DF
:100ECE009000B7F025E02491F582E43400F583E03C
:100EDE00FEA3E0FF9000B5EEF0A3EFF09000A7EEBA
:050EEE00F0A3EFF0226B
:100F8700E4F5957596FF53B1FD43B20253B1DF43C4
:100F9700B22053B1EF43B2104392405391BF4394F1
:050FA7008353937C223E
:100EF300E4F5BB120EAE12105D12103812107D1203
:100F03000F87121099D2AFC296C2B4C2B5C287C2BC
:100F130080C281120CA5120911120F2A7BFF7A0AD3
:070F2300794712010980EC7F
:0300330002106D4B
:10106D005387DFD296C222C21EC2B4C2B5C2873226
:03002B00020E19A9
:0B0E1900C0E0C083C082C0D075D008CC
:100E2400E453BCDFADBD9000ABF0A3EDF09000AB9C
:100E3400E0FCA3E0C4F8540FC868FEECC454F048C6
:100E44009000ABF0A3CEF0E5BEC4540FFF7E00903B
:0B0E540000ABE0F0A3E04FF043BC4017
:090E5F00D0D0D082D083D0E03263
:03000B00020DC71C
:0B0DC700C0E0C083C082C0D075D0081F
:100DD200E4FEFC7F1E0C7D3A758A6C758CFB9000DC
:100DE20079E004F07006900078E004F0900078E07A
:100DF200FAA3E0FBB50F06EAB50E02C228EBB50D69
:0E0E02000DEAB50C09900078E4F0A3F0D228B8
:090E1000D0D0D082D083D0E032B2
:03003B00020403B9
:10040300C0E0C0F0C083C082C0D075D000C000C0BF
:1004130001C002C003C004C005C006C00720DF033B
:10042300020596C2DF2027030205969000A6E0048A
:10043300F09000B2E0FF9000A6E0C39FC394025087
:100443000302059690009FE0FFD39411503FEFC342
:10045300940740399000A4E0FEA3E0FF941EEE94BD
:1004630000502A9000A1E0C394025003E004F090EE
:100473000089E0C394025003E004F07BFF7A0A7919
:100483005990009FE0900053F0A3EE802090009FCE
:10049300E0FFD39400401D7BFF7A0A7975900053E7
:1004A300EFF09000A4E0FFA3E0900054CFF0A3EF9F
:1004B300F01201099000A0E0FFD3941B503FEFC35B
:1004C300940F40399000A4E0FEA3E0FF9428EE943B
:1004D30000502A9000A2E0C394025003E004F0907D
:1004E300008AE0C394025003E004F07BFF7A0A79A8
:1004F3009A9000A0E0900053F0A3EE80209000A01B
:10050300E0FFD39400401D7BFF7A0A79B690005335
:10051300EFF09000A4E0FFA3E0900054CFF0A3EF2E
:10052300F0120109900088E0FFD394255018EFC31F
:10053300941640129000A5E094329000A4E0940039
:100543005004D2268018900088E0FFD39400400E18
:100553007BFF7A0A79DB900053EFF0120109C2277F
:100563009000A6E4F09000A4F0A3F090009FF0A305
:10057300F0900088F09000AD120B1F000000009077
:1005830000B1120B1F00000000900082120B1F002D
:1005930000000020DB030206DEC2DBC22390009DC5
:1005A300E4F0A3F09000A5E004F070069000A4E04E
:1005B30004F09000B1E0FCA3E0FDA3E0FEA3E0FFA4
:1005C3009000AD120B139000B4E5EDF09000B3E58D
:1005D300FDF09000A6E09000B2F09000B1E4F0903E
:1005E30000ADE0F8A3E0F9A3E0FAA3E0FBA3E0FC8D
:1005F300A3E0FDA3E0FEA3E0C39BFFEE9AFEED990B
:10060300FDEC98FC900082120B132027030206CA0C
:10061300D39000A5E094049000A4E094005003025A
:1006230006CAE47F5F7E09FDFC900082E0F8A3E048
:10063300F9A3E0FAA3E0FBD3120B02501CE47FF111
:100643007E08FDFC900082E0F8A3A3A3E0C3120B95
:1006530002400690009FE004F0E47F2D7E06FDFC3F
:10066300900082E0F8A3E0F9A3E0FAA3E0FBD31241
:100673000B02501CE47FBE7E05FDFC900082E0F877
:10068300A3A3A3E0C3120B0240069000A0E004F072
:10069300E47F147E08FDFC900082E0F8A3E0F9A358
:1006A300E0FAA3E0FBD3120B02501CE47FB07E07F9
:1006B300FDFC900082E0F8A3A3A3E0C3120B024069
:1006C30006900088E004F0202711D2279000A6E4CA
:1006D300F090009FF0A3F0900088F0D007D006D0F0
:1006E30005D004D003D002D001D000D0D0D082D026
:0606F30083D0F0D0E032DC
:03009B000206F961
:0D06F900C0E0C0F0C083C082C0D075D00842
:1007060090007BE004F0700690007AE004F0900020
:100716007DE004F0700690007CE004F090007FE03D
:1007260004F0700690007EE004F090009EE004F075
:10073600700690009DE004F03025309000A3E0B4F0
:1007460001297BFF7A0A79F390007AE0FFA3E09013
:100756000053CFF0A3EFF0120109C22590007AE40E
:10076600F0A304F0D221D21212000390007CE070B4
:1007760004A3E06401700E9000A9E0FFA3E0B50FAA
:1007860004D224C2A590007EE07004A3E064017048
:100796002E9000B7E0248BF582E43400F583E0FF69
:1007A60090008BE0B50F18D21C9000B5E0FFA3E0D7
:1007B6009000A7CFF0A3EFF0301E04C2B4C2B590EC
:1007C600007AE0FEA3E0FF64504E70139000A3E0B1
:1007D600D394004038302135C212120003802EEF28
:1007E60064C84E70289000A3E0D3940040183021CE
:1007F60015E014F0E0700AC21DC21FC221C21280A9
:1008060002D21212000390007AE4F0A3F090007C6A
:10081600E0FEA3E0FF64C84E70109000AAE0D394F7
:10082600004034302431D2A5802DEF64907003EE61
:10083600640170239000AAE0D39400401330241082
:10084600E014F0E07008C226C224D2A58002C2A538
:1008560090007CE4F0A3F09000A7E0FEA3E0FF90F8
:10086600007EE0FCA3E0FDB50F19ECB50E15900077
:100876008BE0D394014074301C71301E6ED2B4C22A
:10088600B58068EF2414FFE43EFEEDB50F19ECB514
:100896000E1590008BE0D394014050301C4D301E55
:1008A6004AC2B4D2B580449000A8E02415FF900057
:1008B600A7E03400FE90007EE06E7003A3E06F7048
:1008C6002A90008BE0D39401401A301C17E014F0F4
:1008D600E0B40109E4F0C21C301E098003301E0496
:1008E600C2B4C2B590007EE4F0A3F0C390009EE0CF
:1008F60094D090009DE094074006D223E4F0A3F044
:0B090600D0D0D082D083D0F0D0E032FF
:100D4700020EF3E493A3F8E493A34003F68001F2C1
:100D570008DFF48029E493A3F85407240CC8C333AD
:100D6700C4540F4420C8834004F456800146F6DF7C
:100D7700E4800B0102040810204080900BEEE47E13
:100D8700019360BCA3FF543F30E509541FFEE49371
:100D9700A360010ECF54C025E060A840B8E493A338
:100DA700FAE493A3F8E493A3C8C582C8CAC583CA63
:100DB700F0A3C8C582C8CAC583CADFE9DEE780BE1B
:010CA400004F
:100B0200EB9FF5F0EA9E42F0E99D42F0E89C45F049
:010B120022C0
:0C0B1300ECF0A3EDF0A3EEF0A3EFF02255
:100B1F00A8828583F0D083D082120B36120B361247
:100B2F000B36120B36E473E493A3C583C5F0C5836C
:100B3F00C8C582C8F0A3C583C5F0C583C8C582C820
:010B4F002283
:10009E00E51A2453F582E43400F583E0051A229024
:1000AE000050301903900053E475F001120BA802B2
:1000BE000B502012E97F2ED2128018EF540F24908D
:1000CE00D43440D4FF30160BEF24BFB41A005003C3
:1000DE002461FFE51B6002151B051EE51E7002055F
:1000EE001D30190E900050E475F001120BA8EF02AE
:1000FE000B96020F607403D2198003E4C219F51A2D
:10010E00900050120BBFE4F51BF51DF51EE51B60AC
:10011E00077F201200E180F5751CFFC213C212C2C8
:10012E0014C215C217C218C21A1200ADFF700D30DC
:10013E0019057F001200F2AF1EAE1D22B4255FC25C
:10014E00D5C2161200ADFF24D0B40A00501A75F0B5
:10015E000A781B30D50508B6FF0106C6A426F62080
:10016E00D5047002D21580D924CFB41A00EF5004F2
:10017E00C2E5D2160202F3D21380C6D21280C0D2CA
:10018E001480BCD2D580BAD21780B47F201200E181
:10019E002014077401B51B0040F112009EFF1200DF
:1001AE00E102011BD21AD218809512009EFB12009A
:1001BE009EFA12009EF94A4B700679C47A037BFFB1
:1001CE0020142EE51B602A7E008E82758300120B92
:1001DE006960060EEE651C70F0C2D5EBC0E0EAC099
:1001EE00E0E9C0E0EE12033AD0E0F9D0E0FAD0E058
:1001FE00FB120B50FF60AAEBC0E0EAC0E0E9C0E0E2
:10020E001200E1D0E02401F9D0E03400FAD0E0FB96
:10021E00E51C0460DCD51CD980877BFF7A03793618
:10022E00D214809C791080027908C218C21A8008F4
:10023E00D2D5790A8004790AC2D5E51C047002F57C
:10024E001CE4FAFDFEFF12009EFC7B082013131225
:10025E00009EFD7B1030120A12009EFE12009EFFC1
:10026E007B20EC3382D592D55013C3E43012069F17
:10027E00FFE49EFEE42013039DFDE49CFCE4CBF81A
:10028E00C213EC700CCFCECDCCE824F8F870F3800E
:10029E0017C3EF33FFEE33FEED33FDEC33FCEB33E0
:1002AE00FB994002FB0FD8E9EB301305F8D0E0C400
:1002BE0048B213C0E00AEC4D4E4F78207B0070C25E
:1002CE00EAB51C0040BCC0E012033CD0F0D0E020E8
:1002DE001304C4C0E0C4B213C0F01200CAD0F0D5EB
:1002EE00F0EB02011B120BC801B853023258018900
:1002FE004C01854202364F023E44023E49019E4366
:08030E000244550228460228B2
:100316004502284703E450018D2D01912E01B42B8F
:1003260001952301B22003CD2A014D48000001ACFE
:100336003F3F3F00790AA2D5201514301709B9109E
:10034600020404B9080104A2D520180250010420B1
:1003560014689214B51B005034C0E07F2030151984
:100366007F30A21472187217500F120393C214C270
:1003760018C217C21A7F30800F301703E9C0E01287
:1003860000E1301703D0E0F9D0E0B51BCC301717E9
:100396007F30B9100C1200E17F583016077F788045
:1003A60003B908031200E13014057F2D0200E17F36
:1003B60020201AF87F2B2018F322921480CF286E63
:1003C600756C6C2900D21312009E3013F8C2137894
:1003D6001B30D50108F602014D2D50434958120035
:1003E6009E2403B405004001E49003DF931200D27B
:0D03F600743A1200D2D215751B04020232B7
:100B5000BB010689828A83E0225002E722BBFE02A3
:090B6000E32289828A83E49322D6
:100B6900BB010CE58229F582E5833AF583E0225041
:100B790006E92582F8E622BBFE06E92582F8E2228B
:0D0B8900E58229F582E5833AF583E49322A5
:100B9600BB010689828A83F0225002F722BBFE013E
:020BA600F32238
:100BA800F8E0FBA3A3E0F925F0F0E58215827002D6
:070BB8001583E0FA38F0227A
:090BBF00EBF0A3EAF0A3E9F02237
:100BC800D083D082F8E4937012740193700DA3A3BC
:100BD80093F8740193F5828883E4737402936860D0
:060BE800EFA3A3A380DFD0
:100F6000EFB40A07740D120F6B740A309811A89928
:100F7000B8130CC2983098FDA899C298B811F630F1
:070F800099FDC299F59922C9
:00000001FF
